{
  "_format": "hh-sol-artifact-1",
  "contractName": "DollNFT",
  "sourceName": "contracts/DollNFT.sol",
  "abi": [
    {
      "inputs": [
        {
          "internalType": "uint256",
          "name": "_maxSupply",
          "type": "uint256"
        },
        {
          "internalType": "uint256",
          "name": "_cost",
          "type": "uint256"
        },
        {
          "internalType": "uint256",
          "name": "_maxMintAmountPerTx",
          "type": "uint256"
        }
      ],
      "stateMutability": "nonpayable",
      "type": "constructor"
    },
    {
      "inputs": [],
      "name": "ApprovalCallerNotOwnerNorApproved",
      "type": "error"
    },
    {
      "inputs": [],
      "name": "ApprovalQueryForNonexistentToken",
      "type": "error"
    },
    {
      "inputs": [],
      "name": "ApproveToCaller",
      "type": "error"
    },
    {
      "inputs": [],
      "name": "BalanceQueryForZeroAddress",
      "type": "error"
    },
    {
      "inputs": [],
      "name": "InvalidQueryRange",
      "type": "error"
    },
    {
      "inputs": [],
      "name": "MintERC2309QuantityExceedsLimit",
      "type": "error"
    },
    {
      "inputs": [],
      "name": "MintToZeroAddress",
      "type": "error"
    },
    {
      "inputs": [],
      "name": "MintZeroQuantity",
      "type": "error"
    },
    {
      "inputs": [],
      "name": "OwnerQueryForNonexistentToken",
      "type": "error"
    },
    {
      "inputs": [],
      "name": "OwnershipNotInitializedForExtraData",
      "type": "error"
    },
    {
      "inputs": [],
      "name": "TransferCallerNotOwnerNorApproved",
      "type": "error"
    },
    {
      "inputs": [],
      "name": "TransferFromIncorrectOwner",
      "type": "error"
    },
    {
      "inputs": [],
      "name": "TransferToNonERC721ReceiverImplementer",
      "type": "error"
    },
    {
      "inputs": [],
      "name": "TransferToZeroAddress",
      "type": "error"
    },
    {
      "inputs": [],
      "name": "URIQueryForNonexistentToken",
      "type": "error"
    },
    {
      "inputs": [],
      "name": "dollContractIsPaused",
      "type": "error"
    },
    {
      "inputs": [],
      "name": "dollInsufficientFunds",
      "type": "error"
    },
    {
      "inputs": [],
      "name": "dollInvalidMintAmount",
      "type": "error"
    },
    {
      "inputs": [],
      "name": "dollMaxMintAmountExceeded",
      "type": "error"
    },
    {
      "inputs": [],
      "name": "dollNFTSupplyLimitExceeded",
      "type": "error"
    },
    {
      "inputs": [],
      "name": "dollQueryForNonExistentToken",
      "type": "error"
    },
    {
      "anonymous": false,
      "inputs": [
        {
          "indexed": true,
          "internalType": "address",
          "name": "owner",
          "type": "address"
        },
        {
          "indexed": true,
          "internalType": "address",
          "name": "approved",
          "type": "address"
        },
        {
          "indexed": true,
          "internalType": "uint256",
          "name": "tokenId",
          "type": "uint256"
        }
      ],
      "name": "Approval",
      "type": "event"
    },
    {
      "anonymous": false,
      "inputs": [
        {
          "indexed": true,
          "internalType": "address",
          "name": "owner",
          "type": "address"
        },
        {
          "indexed": true,
          "internalType": "address",
          "name": "operator",
          "type": "address"
        },
        {
          "indexed": false,
          "internalType": "bool",
          "name": "approved",
          "type": "bool"
        }
      ],
      "name": "ApprovalForAll",
      "type": "event"
    },
    {
      "anonymous": false,
      "inputs": [
        {
          "indexed": true,
          "internalType": "uint256",
          "name": "fromTokenId",
          "type": "uint256"
        },
        {
          "indexed": false,
          "internalType": "uint256",
          "name": "toTokenId",
          "type": "uint256"
        },
        {
          "indexed": true,
          "internalType": "address",
          "name": "from",
          "type": "address"
        },
        {
          "indexed": true,
          "internalType": "address",
          "name": "to",
          "type": "address"
        }
      ],
      "name": "ConsecutiveTransfer",
      "type": "event"
    },
    {
      "anonymous": false,
      "inputs": [
        {
          "indexed": true,
          "internalType": "address",
          "name": "previousOwner",
          "type": "address"
        },
        {
          "indexed": true,
          "internalType": "address",
          "name": "newOwner",
          "type": "address"
        }
      ],
      "name": "OwnershipTransferred",
      "type": "event"
    },
    {
      "anonymous": false,
      "inputs": [
        {
          "indexed": true,
          "internalType": "address",
          "name": "from",
          "type": "address"
        },
        {
          "indexed": true,
          "internalType": "address",
          "name": "to",
          "type": "address"
        },
        {
          "indexed": true,
          "internalType": "uint256",
          "name": "tokenId",
          "type": "uint256"
        }
      ],
      "name": "Transfer",
      "type": "event"
    },
    {
      "inputs": [],
      "name": "BASE_EXTENSION",
      "outputs": [
        {
          "internalType": "string",
          "name": "",
          "type": "string"
        }
      ],
      "stateMutability": "view",
      "type": "function"
    },
    {
      "inputs": [
        {
          "internalType": "address",
          "name": "to",
          "type": "address"
        },
        {
          "internalType": "uint256",
          "name": "tokenId",
          "type": "uint256"
        }
      ],
      "name": "approve",
      "outputs": [],
      "stateMutability": "nonpayable",
      "type": "function"
    },
    {
      "inputs": [
        {
          "internalType": "address",
          "name": "owner",
          "type": "address"
        }
      ],
      "name": "balanceOf",
      "outputs": [
        {
          "internalType": "uint256",
          "name": "",
          "type": "uint256"
        }
      ],
      "stateMutability": "view",
      "type": "function"
    },
    {
      "inputs": [],
      "name": "baseURI",
      "outputs": [
        {
          "internalType": "string",
          "name": "",
          "type": "string"
        }
      ],
      "stateMutability": "view",
      "type": "function"
    },
    {
      "inputs": [],
      "name": "cost",
      "outputs": [
        {
          "internalType": "uint256",
          "name": "",
          "type": "uint256"
        }
      ],
      "stateMutability": "view",
      "type": "function"
    },
    {
      "inputs": [
        {
          "internalType": "uint256",
          "name": "tokenId",
          "type": "uint256"
        }
      ],
      "name": "explicitOwnershipOf",
      "outputs": [
        {
          "components": [
            {
              "internalType": "address",
              "name": "addr",
              "type": "address"
            },
            {
              "internalType": "uint64",
              "name": "startTimestamp",
              "type": "uint64"
            },
            {
              "internalType": "bool",
              "name": "burned",
              "type": "bool"
            },
            {
              "internalType": "uint24",
              "name": "extraData",
              "type": "uint24"
            }
          ],
          "internalType": "struct IERC721A.TokenOwnership",
          "name": "",
          "type": "tuple"
        }
      ],
      "stateMutability": "view",
      "type": "function"
    },
    {
      "inputs": [
        {
          "internalType": "uint256[]",
          "name": "tokenIds",
          "type": "uint256[]"
        }
      ],
      "name": "explicitOwnershipsOf",
      "outputs": [
        {
          "components": [
            {
              "internalType": "address",
              "name": "addr",
              "type": "address"
            },
            {
              "internalType": "uint64",
              "name": "startTimestamp",
              "type": "uint64"
            },
            {
              "internalType": "bool",
              "name": "burned",
              "type": "bool"
            },
            {
              "internalType": "uint24",
              "name": "extraData",
              "type": "uint24"
            }
          ],
          "internalType": "struct IERC721A.TokenOwnership[]",
          "name": "",
          "type": "tuple[]"
        }
      ],
      "stateMutability": "view",
      "type": "function"
    },
    {
      "inputs": [
        {
          "internalType": "uint256",
          "name": "tokenId",
          "type": "uint256"
        }
      ],
      "name": "getApproved",
      "outputs": [
        {
          "internalType": "address",
          "name": "",
          "type": "address"
        }
      ],
      "stateMutability": "view",
      "type": "function"
    },
    {
      "inputs": [
        {
          "internalType": "address",
          "name": "owner",
          "type": "address"
        },
        {
          "internalType": "address",
          "name": "operator",
          "type": "address"
        }
      ],
      "name": "isApprovedForAll",
      "outputs": [
        {
          "internalType": "bool",
          "name": "",
          "type": "bool"
        }
      ],
      "stateMutability": "view",
      "type": "function"
    },
    {
      "inputs": [],
      "name": "maxMintAmountPerTx",
      "outputs": [
        {
          "internalType": "uint256",
          "name": "",
          "type": "uint256"
        }
      ],
      "stateMutability": "view",
      "type": "function"
    },
    {
      "inputs": [],
      "name": "maxSupply",
      "outputs": [
        {
          "internalType": "uint256",
          "name": "",
          "type": "uint256"
        }
      ],
      "stateMutability": "view",
      "type": "function"
    },
    {
      "inputs": [
        {
          "internalType": "uint256",
          "name": "_mintAmount",
          "type": "uint256"
        }
      ],
      "name": "mint",
      "outputs": [],
      "stateMutability": "payable",
      "type": "function"
    },
    {
      "inputs": [],
      "name": "name",
      "outputs": [
        {
          "internalType": "string",
          "name": "",
          "type": "string"
        }
      ],
      "stateMutability": "view",
      "type": "function"
    },
    {
      "inputs": [],
      "name": "owner",
      "outputs": [
        {
          "internalType": "address",
          "name": "",
          "type": "address"
        }
      ],
      "stateMutability": "view",
      "type": "function"
    },
    {
      "inputs": [
        {
          "internalType": "uint256",
          "name": "tokenId",
          "type": "uint256"
        }
      ],
      "name": "ownerOf",
      "outputs": [
        {
          "internalType": "address",
          "name": "",
          "type": "address"
        }
      ],
      "stateMutability": "view",
      "type": "function"
    },
    {
      "inputs": [
        {
          "internalType": "uint256",
          "name": "_state",
          "type": "uint256"
        }
      ],
      "name": "pause",
      "outputs": [],
      "stateMutability": "payable",
      "type": "function"
    },
    {
      "inputs": [],
      "name": "paused",
      "outputs": [
        {
          "internalType": "uint256",
          "name": "",
          "type": "uint256"
        }
      ],
      "stateMutability": "view",
      "type": "function"
    },
    {
      "inputs": [],
      "name": "renounceOwnership",
      "outputs": [],
      "stateMutability": "nonpayable",
      "type": "function"
    },
    {
      "inputs": [
        {
          "internalType": "address",
          "name": "from",
          "type": "address"
        },
        {
          "internalType": "address",
          "name": "to",
          "type": "address"
        },
        {
          "internalType": "uint256",
          "name": "tokenId",
          "type": "uint256"
        }
      ],
      "name": "safeTransferFrom",
      "outputs": [],
      "stateMutability": "nonpayable",
      "type": "function"
    },
    {
      "inputs": [
        {
          "internalType": "address",
          "name": "from",
          "type": "address"
        },
        {
          "internalType": "address",
          "name": "to",
          "type": "address"
        },
        {
          "internalType": "uint256",
          "name": "tokenId",
          "type": "uint256"
        },
        {
          "internalType": "bytes",
          "name": "_data",
          "type": "bytes"
        }
      ],
      "name": "safeTransferFrom",
      "outputs": [],
      "stateMutability": "nonpayable",
      "type": "function"
    },
    {
      "inputs": [
        {
          "internalType": "address",
          "name": "operator",
          "type": "address"
        },
        {
          "internalType": "bool",
          "name": "approved",
          "type": "bool"
        }
      ],
      "name": "setApprovalForAll",
      "outputs": [],
      "stateMutability": "nonpayable",
      "type": "function"
    },
    {
      "inputs": [
        {
          "internalType": "string",
          "name": "_newBaseURI",
          "type": "string"
        }
      ],
      "name": "setBaseURI",
      "outputs": [],
      "stateMutability": "payable",
      "type": "function"
    },
    {
      "inputs": [
        {
          "internalType": "uint256",
          "name": "_newCost",
          "type": "uint256"
        }
      ],
      "name": "setCost",
      "outputs": [],
      "stateMutability": "payable",
      "type": "function"
    },
    {
      "inputs": [
        {
          "internalType": "uint256",
          "name": "_newMaxMintAmount",
          "type": "uint256"
        }
      ],
      "name": "setMaxMintAmountPerTx",
      "outputs": [],
      "stateMutability": "payable",
      "type": "function"
    },
    {
      "inputs": [
        {
          "internalType": "bytes4",
          "name": "interfaceId",
          "type": "bytes4"
        }
      ],
      "name": "supportsInterface",
      "outputs": [
        {
          "internalType": "bool",
          "name": "",
          "type": "bool"
        }
      ],
      "stateMutability": "view",
      "type": "function"
    },
    {
      "inputs": [],
      "name": "symbol",
      "outputs": [
        {
          "internalType": "string",
          "name": "",
          "type": "string"
        }
      ],
      "stateMutability": "view",
      "type": "function"
    },
    {
      "inputs": [
        {
          "internalType": "uint256",
          "name": "tokenId",
          "type": "uint256"
        }
      ],
      "name": "tokenURI",
      "outputs": [
        {
          "internalType": "string",
          "name": "",
          "type": "string"
        }
      ],
      "stateMutability": "view",
      "type": "function"
    },
    {
      "inputs": [
        {
          "internalType": "address",
          "name": "owner",
          "type": "address"
        }
      ],
      "name": "tokensOfOwner",
      "outputs": [
        {
          "internalType": "uint256[]",
          "name": "",
          "type": "uint256[]"
        }
      ],
      "stateMutability": "view",
      "type": "function"
    },
    {
      "inputs": [
        {
          "internalType": "address",
          "name": "owner",
          "type": "address"
        },
        {
          "internalType": "uint256",
          "name": "start",
          "type": "uint256"
        },
        {
          "internalType": "uint256",
          "name": "stop",
          "type": "uint256"
        }
      ],
      "name": "tokensOfOwnerIn",
      "outputs": [
        {
          "internalType": "uint256[]",
          "name": "",
          "type": "uint256[]"
        }
      ],
      "stateMutability": "view",
      "type": "function"
    },
    {
      "inputs": [],
      "name": "totalSupply",
      "outputs": [
        {
          "internalType": "uint256",
          "name": "",
          "type": "uint256"
        }
      ],
      "stateMutability": "view",
      "type": "function"
    },
    {
      "inputs": [
        {
          "internalType": "address",
          "name": "from",
          "type": "address"
        },
        {
          "internalType": "address",
          "name": "to",
          "type": "address"
        },
        {
          "internalType": "uint256",
          "name": "tokenId",
          "type": "uint256"
        }
      ],
      "name": "transferFrom",
      "outputs": [],
      "stateMutability": "nonpayable",
      "type": "function"
    },
    {
      "inputs": [
        {
          "internalType": "address",
          "name": "newOwner",
          "type": "address"
        }
      ],
      "name": "transferOwnership",
      "outputs": [],
      "stateMutability": "nonpayable",
      "type": "function"
    },
    {
      "inputs": [],
      "name": "withdraw",
      "outputs": [],
      "stateMutability": "payable",
      "type": "function"
    }
  ],
  "bytecode": "0x60a06040526001600c553480156200001657600080fd5b5060405162003a4a38038062003a4a83398181016040528101906200003c9190620002cb565b6040518060400160405280600881526020017f446f6c6c204e46540000000000000000000000000000000000000000000000008152506040518060400160405280600481526020017f444e4654000000000000000000000000000000000000000000000000000000008152508160029080519060200190620000c092919062000204565b508060039080519060200190620000d992919062000204565b50620000ea6200013160201b60201c565b600081905550505062000112620001066200013660201b60201c565b6200013e60201b60201c565b81600a8190555080600b819055508260808181525050505050620003b5565b600090565b600033905090565b6000600860009054906101000a900473ffffffffffffffffffffffffffffffffffffffff16905081600860006101000a81548173ffffffffffffffffffffffffffffffffffffffff021916908373ffffffffffffffffffffffffffffffffffffffff1602179055508173ffffffffffffffffffffffffffffffffffffffff168173ffffffffffffffffffffffffffffffffffffffff167f8be0079c531659141344cd1fd0a4f28419497f9722a3daafe3b4186f6b6457e060405160405180910390a35050565b828054620002129062000331565b90600052602060002090601f01602090048101928262000236576000855562000282565b82601f106200025157805160ff191683800117855562000282565b8280016001018555821562000282579182015b828111156200028157825182559160200191906001019062000264565b5b50905062000291919062000295565b5090565b5b80821115620002b057600081600090555060010162000296565b5090565b600081519050620002c5816200039b565b92915050565b600080600060608486031215620002e757620002e662000396565b5b6000620002f786828701620002b4565b93505060206200030a86828701620002b4565b92505060406200031d86828701620002b4565b9150509250925092565b6000819050919050565b600060028204905060018216806200034a57607f821691505b6020821081141562000361576200036062000367565b5b50919050565b7f4e487b7100000000000000000000000000000000000000000000000000000000600052602260045260246000fd5b600080fd5b620003a68162000327565b8114620003b257600080fd5b50565b608051613672620003d8600039600081816115d50152611a0601526136726000f3fe6080604052600436106101ee5760003560e01c806370a082311161010d578063a22cb465116100a0578063c87b56dd1161006f578063c87b56dd146106ad578063d5abeb01146106ea578063df3fdf0014610715578063e985e9c514610740578063f2fde38b1461077d576101ee565b8063a22cb46514610602578063b071401b1461062b578063b88d4fde14610647578063c23dc68f14610670576101ee565b806394354fd0116100dc57806394354fd01461055357806395d89b411461057e57806399a2557a146105a9578063a0712d68146105e6576101ee565b806370a0823114610497578063715018a6146104d45780638462151c146104eb5780638da5cb5b14610528576101ee565b80633ccfd60b116101855780635bbb2177116101545780635bbb2177146103c75780635c975abb146104045780636352211e1461042f5780636c0360eb1461046c576101ee565b80633ccfd60b1461035c57806342842e0e1461036657806344a0d68a1461038f57806355f804b3146103ab576101ee565b8063136439dd116101c1578063136439dd146102c157806313faede6146102dd57806318160ddd1461030857806323b872dd14610333576101ee565b806301ffc9a7146101f357806306fdde0314610230578063081812fc1461025b578063095ea7b314610298575b600080fd5b3480156101ff57600080fd5b5061021a60048036038101906102159190612aab565b6107a6565b6040516102279190612f86565b60405180910390f35b34801561023c57600080fd5b50610245610838565b6040516102529190612fa1565b60405180910390f35b34801561026757600080fd5b50610282600480360381019061027d9190612b4e565b6108ca565b60405161028f9190612edb565b60405180910390f35b3480156102a457600080fd5b506102bf60048036038101906102ba91906129cb565b610949565b005b6102db60048036038101906102d69190612b4e565b610a8d565b005b3480156102e957600080fd5b506102f2610a9f565b6040516102ff919061301e565b60405180910390f35b34801561031457600080fd5b5061031d610aa5565b60405161032a919061301e565b60405180910390f35b34801561033f57600080fd5b5061035a600480360381019061035591906128b5565b610abc565b005b610364610de1565b005b34801561037257600080fd5b5061038d600480360381019061038891906128b5565b610e69565b005b6103a960048036038101906103a49190612b4e565b610e89565b005b6103c560048036038101906103c09190612b05565b610e9b565b005b3480156103d357600080fd5b506103ee60048036038101906103e99190612a5e565b610ebd565b6040516103fb9190612f42565b60405180910390f35b34801561041057600080fd5b50610419610f80565b604051610426919061301e565b60405180910390f35b34801561043b57600080fd5b5061045660048036038101906104519190612b4e565b610f86565b6040516104639190612edb565b60405180910390f35b34801561047857600080fd5b50610481610f98565b60405161048e9190612fa1565b60405180910390f35b3480156104a357600080fd5b506104be60048036038101906104b99190612848565b611026565b6040516104cb919061301e565b60405180910390f35b3480156104e057600080fd5b506104e96110df565b005b3480156104f757600080fd5b50610512600480360381019061050d9190612848565b6110f3565b60405161051f9190612f64565b60405180910390f35b34801561053457600080fd5b5061053d61123d565b60405161054a9190612edb565b60405180910390f35b34801561055f57600080fd5b50610568611267565b604051610575919061301e565b60405180910390f35b34801561058a57600080fd5b5061059361126d565b6040516105a09190612fa1565b60405180910390f35b3480156105b557600080fd5b506105d060048036038101906105cb9190612a0b565b6112ff565b6040516105dd9190612f64565b60405180910390f35b61060060048036038101906105fb9190612b4e565b611513565b005b34801561060e57600080fd5b506106296004803603810190610624919061298b565b6116c8565b005b61064560048036038101906106409190612b4e565b611840565b005b34801561065357600080fd5b5061066e60048036038101906106699190612908565b611852565b005b34801561067c57600080fd5b5061069760048036038101906106929190612b4e565b6118c5565b6040516106a49190613003565b60405180910390f35b3480156106b957600080fd5b506106d460048036038101906106cf9190612b4e565b61192f565b6040516106e19190612fa1565b60405180910390f35b3480156106f657600080fd5b506106ff611a04565b60405161070c919061301e565b60405180910390f35b34801561072157600080fd5b5061072a611a28565b6040516107379190612fa1565b60405180910390f35b34801561074c57600080fd5b5061076760048036038101906107629190612875565b611a61565b6040516107749190612f86565b60405180910390f35b34801561078957600080fd5b506107a4600480360381019061079f9190612848565b611af5565b005b60006301ffc9a760e01b827bffffffffffffffffffffffffffffffffffffffffffffffffffffffff1916148061080157506380ac58cd60e01b827bffffffffffffffffffffffffffffffffffffffffffffffffffffffff1916145b806108315750635b5e139f60e01b827bffffffffffffffffffffffffffffffffffffffffffffffffffffffff1916145b9050919050565b6060600280546108479061336e565b80601f01602080910402602001604051908101604052809291908181526020018280546108739061336e565b80156108c05780601f10610895576101008083540402835291602001916108c0565b820191906000526020600020905b8154815290600101906020018083116108a357829003601f168201915b5050505050905090565b60006108d582611b79565b61090b576040517fcf4700e400000000000000000000000000000000000000000000000000000000815260040160405180910390fd5b6006600083815260200190815260200160002060000160009054906101000a900473ffffffffffffffffffffffffffffffffffffffff169050919050565b600061095482610f86565b90508073ffffffffffffffffffffffffffffffffffffffff16610975611bd8565b73ffffffffffffffffffffffffffffffffffffffff16146109d8576109a18161099c611bd8565b611a61565b6109d7576040517fcfb3b94200000000000000000000000000000000000000000000000000000000815260040160405180910390fd5b5b826006600084815260200190815260200160002060000160006101000a81548173ffffffffffffffffffffffffffffffffffffffff021916908373ffffffffffffffffffffffffffffffffffffffff160217905550818373ffffffffffffffffffffffffffffffffffffffff168273ffffffffffffffffffffffffffffffffffffffff167f8c5be1e5ebec7d5bd14f71427d1e84f3dd0314c0f7b2291e5b200ac8c7c3b92560405160405180910390a4505050565b610a95611be0565b80600c8190555050565b600a5481565b6000610aaf611c5e565b6001546000540303905090565b6000610ac782611c63565b90508373ffffffffffffffffffffffffffffffffffffffff168173ffffffffffffffffffffffffffffffffffffffff1614610b2e576040517fa114810000000000000000000000000000000000000000000000000000000000815260040160405180910390fd5b600080610b3a84611d31565b91509150610b508187610b4b611bd8565b611d58565b610b9c57610b6586610b60611bd8565b611a61565b610b9b576040517f59c896be00000000000000000000000000000000000000000000000000000000815260040160405180910390fd5b5b600073ffffffffffffffffffffffffffffffffffffffff168573ffffffffffffffffffffffffffffffffffffffff161415610c03576040517fea553b3400000000000000000000000000000000000000000000000000000000815260040160405180910390fd5b610c108686866001611d9c565b8015610c1b57600082555b600560008773ffffffffffffffffffffffffffffffffffffffff1673ffffffffffffffffffffffffffffffffffffffff168152602001908152602001600020600081546001900391905081905550600560008673ffffffffffffffffffffffffffffffffffffffff1673ffffffffffffffffffffffffffffffffffffffff1681526020019081526020016000206000815460010191905081905550610ce985610cc5888887611da2565b7c020000000000000000000000000000000000000000000000000000000017611dca565b600460008681526020019081526020016000208190555060007c020000000000000000000000000000000000000000000000000000000084161415610d71576000600185019050600060046000838152602001908152602001600020541415610d6f576000548114610d6e578360046000838152602001908152602001600020819055505b5b505b838573ffffffffffffffffffffffffffffffffffffffff168773ffffffffffffffffffffffffffffffffffffffff167fddf252ad1be2c89b69c2b068fc378daa952ba7f163c4a11628f55a4df523b3ef60405160405180910390a4610dd98686866001611df5565b505050505050565b610de9611be0565b6000610df361123d565b73ffffffffffffffffffffffffffffffffffffffff1647604051610e1690612ec6565b60006040518083038185875af1925050503d8060008114610e53576040519150601f19603f3d011682016040523d82523d6000602084013e610e58565b606091505b5050905080610e6657600080fd5b50565b610e8483838360405180602001604052806000815250611852565b505050565b610e91611be0565b80600a8190555050565b610ea3611be0565b8060099080519060200190610eb99291906125b7565b5050565b6060600083839050905060008167ffffffffffffffff811115610ee357610ee2613507565b5b604051908082528060200260200182016040528015610f1c57816020015b610f0961263d565b815260200190600190039081610f015790505b50905060005b828114610f7457610f4b868683818110610f3f57610f3e6134d8565b5b905060200201356118c5565b828281518110610f5e57610f5d6134d8565b5b6020026020010181905250806001019050610f22565b50809250505092915050565b600c5481565b6000610f9182611c63565b9050919050565b60098054610fa59061336e565b80601f0160208091040260200160405190810160405280929190818152602001828054610fd19061336e565b801561101e5780601f10610ff35761010080835404028352916020019161101e565b820191906000526020600020905b81548152906001019060200180831161100157829003601f168201915b505050505081565b60008073ffffffffffffffffffffffffffffffffffffffff168273ffffffffffffffffffffffffffffffffffffffff16141561108e576040517f8f4eb60400000000000000000000000000000000000000000000000000000000815260040160405180910390fd5b67ffffffffffffffff600560008473ffffffffffffffffffffffffffffffffffffffff1673ffffffffffffffffffffffffffffffffffffffff16815260200190815260200160002054169050919050565b6110e7611be0565b6110f16000611dfb565b565b6060600080600061110385611026565b905060008167ffffffffffffffff81111561112157611120613507565b5b60405190808252806020026020018201604052801561114f5781602001602082028036833780820191505090505b50905061115a61263d565b6000611164611c5e565b90505b83861461122f5761117781611ec1565b915081604001511561118857611224565b600073ffffffffffffffffffffffffffffffffffffffff16826000015173ffffffffffffffffffffffffffffffffffffffff16146111c857816000015194505b8773ffffffffffffffffffffffffffffffffffffffff168573ffffffffffffffffffffffffffffffffffffffff1614156112235780838780600101985081518110611216576112156134d8565b5b6020026020010181815250505b5b806001019050611167565b508195505050505050919050565b6000600860009054906101000a900473ffffffffffffffffffffffffffffffffffffffff16905090565b600b5481565b60606003805461127c9061336e565b80601f01602080910402602001604051908101604052809291908181526020018280546112a89061336e565b80156112f55780601f106112ca576101008083540402835291602001916112f5565b820191906000526020600020905b8154815290600101906020018083116112d857829003601f168201915b5050505050905090565b606081831061133a576040517f32c1995a00000000000000000000000000000000000000000000000000000000815260040160405180910390fd5b600080611345611eec565b905061134f611c5e565b8510156113615761135e611c5e565b94505b8084111561136d578093505b600061137887611026565b90508486101561139b576000868603905081811015611395578091505b506113a0565b600090505b60008167ffffffffffffffff8111156113bc576113bb613507565b5b6040519080825280602002602001820160405280156113ea5781602001602082028036833780820191505090505b5090506000821415611402578094505050505061150c565b600061140d886118c5565b90506000816040015161142257816000015190505b60008990505b8881141580156114385750848714155b156114fe5761144681611ec1565b9250826040015115611457576114f3565b600073ffffffffffffffffffffffffffffffffffffffff16836000015173ffffffffffffffffffffffffffffffffffffffff161461149757826000015191505b8a73ffffffffffffffffffffffffffffffffffffffff168273ffffffffffffffffffffffffffffffffffffffff1614156114f257808488806001019950815181106114e5576114e46134d8565b5b6020026020010181815250505b5b806001019050611428565b508583528296505050505050505b9392505050565b6001600c541415611550576040517fa0ff9c4d00000000000000000000000000000000000000000000000000000000815260040160405180910390fd5b600081141561158b576040517fb3ee6db000000000000000000000000000000000000000000000000000000000815260040160405180910390fd5b600b548111156115c7576040517f10c64b4c00000000000000000000000000000000000000000000000000000000815260040160405180910390fd5b60006115d1610aa5565b90507f000000000000000000000000000000000000000000000000000000000000000082826116009190613180565b1115611638576040517f5c2055c200000000000000000000000000000000000000000000000000000000815260040160405180910390fd5b61164061123d565b73ffffffffffffffffffffffffffffffffffffffff163373ffffffffffffffffffffffffffffffffffffffff16146116ba5781600a546116809190613207565b3410156116b9576040517f8fa3bf0400000000000000000000000000000000000000000000000000000000815260040160405180910390fd5b5b6116c43383611ef5565b5050565b6116d0611bd8565b73ffffffffffffffffffffffffffffffffffffffff168273ffffffffffffffffffffffffffffffffffffffff161415611735576040517fb06307db00000000000000000000000000000000000000000000000000000000815260040160405180910390fd5b8060076000611742611bd8565b73ffffffffffffffffffffffffffffffffffffffff1673ffffffffffffffffffffffffffffffffffffffff16815260200190815260200160002060008473ffffffffffffffffffffffffffffffffffffffff1673ffffffffffffffffffffffffffffffffffffffff16815260200190815260200160002060006101000a81548160ff0219169083151502179055508173ffffffffffffffffffffffffffffffffffffffff166117ef611bd8565b73ffffffffffffffffffffffffffffffffffffffff167f17307eab39ab6107e8899845ad3d59bd9653f200f220920489ca2b5937696c31836040516118349190612f86565b60405180910390a35050565b611848611be0565b80600b8190555050565b61185d848484610abc565b60008373ffffffffffffffffffffffffffffffffffffffff163b146118bf5761188884848484611f13565b6118be576040517fd1a57ed600000000000000000000000000000000000000000000000000000000815260040160405180910390fd5b5b50505050565b6118cd61263d565b6118d561263d565b6118dd611c5e565b8310806118f157506118ed611eec565b8310155b156118ff578091505061192a565b61190883611ec1565b905080604001511561191d578091505061192a565b61192683612073565b9150505b919050565b606061193a82611b79565b611970576040517f2ffc1cbe00000000000000000000000000000000000000000000000000000000815260040160405180910390fd5b600061197a612093565b9050600081511161199a57604051806020016040528060008152506119fc565b806119a484612125565b6040518060400160405280600581526020017f2e6a736f6e0000000000000000000000000000000000000000000000000000008152506040516020016119ec93929190612e95565b6040516020818303038152906040525b915050919050565b7f000000000000000000000000000000000000000000000000000000000000000081565b6040518060400160405280600581526020017f2e6a736f6e00000000000000000000000000000000000000000000000000000081525081565b6000600760008473ffffffffffffffffffffffffffffffffffffffff1673ffffffffffffffffffffffffffffffffffffffff16815260200190815260200160002060008373ffffffffffffffffffffffffffffffffffffffff1673ffffffffffffffffffffffffffffffffffffffff16815260200190815260200160002060009054906101000a900460ff16905092915050565b611afd611be0565b600073ffffffffffffffffffffffffffffffffffffffff168173ffffffffffffffffffffffffffffffffffffffff161415611b6d576040517f08c379a0000000000000000000000000000000000000000000000000000000008152600401611b6490612fc3565b60405180910390fd5b611b7681611dfb565b50565b600081611b84611c5e565b11158015611b93575060005482105b8015611bd1575060007c0100000000000000000000000000000000000000000000000000000000600460008581526020019081526020016000205416145b9050919050565b600033905090565b611be8612286565b73ffffffffffffffffffffffffffffffffffffffff16611c0661123d565b73ffffffffffffffffffffffffffffffffffffffff1614611c5c576040517f08c379a0000000000000000000000000000000000000000000000000000000008152600401611c5390612fe3565b60405180910390fd5b565b600090565b60008082905080611c72611c5e565b11611cfa57600054811015611cf95760006004600083815260200190815260200160002054905060007c010000000000000000000000000000000000000000000000000000000082161415611cf7575b6000811415611ced576004600083600190039350838152602001908152602001600020549050611cc2565b8092505050611d2c565b505b5b6040517fdf2d9b4200000000000000000000000000000000000000000000000000000000815260040160405180910390fd5b919050565b60008060006006600085815260200190815260200160002090508092508254915050915091565b600073ffffffffffffffffffffffffffffffffffffffff8316925073ffffffffffffffffffffffffffffffffffffffff821691508382148383141790509392505050565b50505050565b60008060e883901c905060e8611db986868461228e565b62ffffff16901b9150509392505050565b600073ffffffffffffffffffffffffffffffffffffffff83169250814260a01b178317905092915050565b50505050565b6000600860009054906101000a900473ffffffffffffffffffffffffffffffffffffffff16905081600860006101000a81548173ffffffffffffffffffffffffffffffffffffffff021916908373ffffffffffffffffffffffffffffffffffffffff1602179055508173ffffffffffffffffffffffffffffffffffffffff168173ffffffffffffffffffffffffffffffffffffffff167f8be0079c531659141344cd1fd0a4f28419497f9722a3daafe3b4186f6b6457e060405160405180910390a35050565b611ec961263d565b611ee56004600084815260200190815260200160002054612297565b9050919050565b60008054905090565b611f0f82826040518060200160405280600081525061234d565b5050565b60008373ffffffffffffffffffffffffffffffffffffffff1663150b7a02611f39611bd8565b8786866040518563ffffffff1660e01b8152600401611f5b9493929190612ef6565b602060405180830381600087803b158015611f7557600080fd5b505af1925050508015611fa657506040513d601f19601f82011682018060405250810190611fa39190612ad8565b60015b612020573d8060008114611fd6576040519150601f19603f3d011682016040523d82523d6000602084013e611fdb565b606091505b50600081511415612018576040517fd1a57ed600000000000000000000000000000000000000000000000000000000815260040160405180910390fd5b805181602001fd5b63150b7a0260e01b7bffffffffffffffffffffffffffffffffffffffffffffffffffffffff1916817bffffffffffffffffffffffffffffffffffffffffffffffffffffffff191614915050949350505050565b61207b61263d565b61208c61208783611c63565b612297565b9050919050565b6060600980546120a29061336e565b80601f01602080910402602001604051908101604052809291908181526020018280546120ce9061336e565b801561211b5780601f106120f05761010080835404028352916020019161211b565b820191906000526020600020905b8154815290600101906020018083116120fe57829003601f168201915b5050505050905090565b6060600082141561216d576040518060400160405280600181526020017f30000000000000000000000000000000000000000000000000000000000000008152509050612281565b600082905060005b6000821461219f578080612188906133d1565b915050600a8261219891906131d6565b9150612175565b60008167ffffffffffffffff8111156121bb576121ba613507565b5b6040519080825280601f01601f1916602001820160405280156121ed5781602001600182028036833780820191505090505b5090505b6000851461227a576001826122069190613261565b9150600a85612215919061341a565b60306122219190613180565b60f81b818381518110612237576122366134d8565b5b60200101907effffffffffffffffffffffffffffffffffffffffffffffffffffffffffffff1916908160001a905350600a8561227391906131d6565b94506121f1565b8093505050505b919050565b600033905090565b60009392505050565b61229f61263d565b81816000019073ffffffffffffffffffffffffffffffffffffffff16908173ffffffffffffffffffffffffffffffffffffffff168152505060a082901c816020019067ffffffffffffffff16908167ffffffffffffffff168152505060007c01000000000000000000000000000000000000000000000000000000008316141581604001901515908115158152505060e882901c816060019062ffffff16908162ffffff1681525050919050565b61235783836123ea565b60008373ffffffffffffffffffffffffffffffffffffffff163b146123e557600080549050600083820390505b6123976000868380600101945086611f13565b6123cd576040517fd1a57ed600000000000000000000000000000000000000000000000000000000815260040160405180910390fd5b8181106123845781600054146123e257600080fd5b50505b505050565b600080549050600082141561242b576040517fb562e8dd00000000000000000000000000000000000000000000000000000000815260040160405180910390fd5b6124386000848385611d9c565b600160406001901b178202600560008573ffffffffffffffffffffffffffffffffffffffff1673ffffffffffffffffffffffffffffffffffffffff168152602001908152602001600020600082825401925050819055506124af836124a06000866000611da2565b6124a9856125a7565b17611dca565b6004600083815260200190815260200160002081905550600080838301905073ffffffffffffffffffffffffffffffffffffffff85169150828260007fddf252ad1be2c89b69c2b068fc378daa952ba7f163c4a11628f55a4df523b3ef600080a4600183015b81811461255057808360007fddf252ad1be2c89b69c2b068fc378daa952ba7f163c4a11628f55a4df523b3ef600080a4600181019050612515565b50600082141561258c576040517f2e07630000000000000000000000000000000000000000000000000000000000815260040160405180910390fd5b8060008190555050506125a26000848385611df5565b505050565b60006001821460e11b9050919050565b8280546125c39061336e565b90600052602060002090601f0160209004810192826125e5576000855561262c565b82601f106125fe57805160ff191683800117855561262c565b8280016001018555821561262c579182015b8281111561262b578251825591602001919060010190612610565b5b509050612639919061268c565b5090565b6040518060800160405280600073ffffffffffffffffffffffffffffffffffffffff168152602001600067ffffffffffffffff168152602001600015158152602001600062ffffff1681525090565b5b808211156126a557600081600090555060010161268d565b5090565b60006126bc6126b78461305e565b613039565b9050828152602081018484840111156126d8576126d7613545565b5b6126e384828561332c565b509392505050565b60006126fe6126f98461308f565b613039565b90508281526020810184848401111561271a57612719613545565b5b61272584828561332c565b509392505050565b60008135905061273c816135e0565b92915050565b60008083601f8401126127585761275761353b565b5b8235905067ffffffffffffffff81111561277557612774613536565b5b60208301915083602082028301111561279157612790613540565b5b9250929050565b6000813590506127a7816135f7565b92915050565b6000813590506127bc8161360e565b92915050565b6000815190506127d18161360e565b92915050565b600082601f8301126127ec576127eb61353b565b5b81356127fc8482602086016126a9565b91505092915050565b600082601f83011261281a5761281961353b565b5b813561282a8482602086016126eb565b91505092915050565b60008135905061284281613625565b92915050565b60006020828403121561285e5761285d61354f565b5b600061286c8482850161272d565b91505092915050565b6000806040838503121561288c5761288b61354f565b5b600061289a8582860161272d565b92505060206128ab8582860161272d565b9150509250929050565b6000806000606084860312156128ce576128cd61354f565b5b60006128dc8682870161272d565b93505060206128ed8682870161272d565b92505060406128fe86828701612833565b9150509250925092565b600080600080608085870312156129225761292161354f565b5b60006129308782880161272d565b94505060206129418782880161272d565b935050604061295287828801612833565b925050606085013567ffffffffffffffff8111156129735761297261354a565b5b61297f878288016127d7565b91505092959194509250565b600080604083850312156129a2576129a161354f565b5b60006129b08582860161272d565b92505060206129c185828601612798565b9150509250929050565b600080604083850312156129e2576129e161354f565b5b60006129f08582860161272d565b9250506020612a0185828601612833565b9150509250929050565b600080600060608486031215612a2457612a2361354f565b5b6000612a328682870161272d565b9350506020612a4386828701612833565b9250506040612a5486828701612833565b9150509250925092565b60008060208385031215612a7557612a7461354f565b5b600083013567ffffffffffffffff811115612a9357612a9261354a565b5b612a9f85828601612742565b92509250509250929050565b600060208284031215612ac157612ac061354f565b5b6000612acf848285016127ad565b91505092915050565b600060208284031215612aee57612aed61354f565b5b6000612afc848285016127c2565b91505092915050565b600060208284031215612b1b57612b1a61354f565b5b600082013567ffffffffffffffff811115612b3957612b3861354a565b5b612b4584828501612805565b91505092915050565b600060208284031215612b6457612b6361354f565b5b6000612b7284828501612833565b91505092915050565b6000612b878383612daf565b60808301905092915050565b6000612b9f8383612e68565b60208301905092915050565b612bb481613295565b82525050565b612bc381613295565b82525050565b6000612bd4826130e0565b612bde8185613126565b9350612be9836130c0565b8060005b83811015612c1a578151612c018882612b7b565b9750612c0c8361310c565b925050600181019050612bed565b5085935050505092915050565b6000612c32826130eb565b612c3c8185613137565b9350612c47836130d0565b8060005b83811015612c78578151612c5f8882612b93565b9750612c6a83613119565b925050600181019050612c4b565b5085935050505092915050565b612c8e816132a7565b82525050565b612c9d816132a7565b82525050565b6000612cae826130f6565b612cb88185613148565b9350612cc881856020860161333b565b612cd181613554565b840191505092915050565b6000612ce782613101565b612cf18185613164565b9350612d0181856020860161333b565b612d0a81613554565b840191505092915050565b6000612d2082613101565b612d2a8185613175565b9350612d3a81856020860161333b565b80840191505092915050565b6000612d53602683613164565b9150612d5e82613565565b604082019050919050565b6000612d76602083613164565b9150612d81826135b4565b602082019050919050565b6000612d99600083613159565b9150612da4826135dd565b600082019050919050565b608082016000820151612dc56000850182612bab565b506020820151612dd86020850182612e86565b506040820151612deb6040850182612c85565b506060820151612dfe6060850182612e59565b50505050565b608082016000820151612e1a6000850182612bab565b506020820151612e2d6020850182612e86565b506040820151612e406040850182612c85565b506060820151612e536060850182612e59565b50505050565b612e62816132ff565b82525050565b612e718161330e565b82525050565b612e808161330e565b82525050565b612e8f81613318565b82525050565b6000612ea18286612d15565b9150612ead8285612d15565b9150612eb98284612d15565b9150819050949350505050565b6000612ed182612d8c565b9150819050919050565b6000602082019050612ef06000830184612bba565b92915050565b6000608082019050612f0b6000830187612bba565b612f186020830186612bba565b612f256040830185612e77565b8181036060830152612f378184612ca3565b905095945050505050565b60006020820190508181036000830152612f5c8184612bc9565b905092915050565b60006020820190508181036000830152612f7e8184612c27565b905092915050565b6000602082019050612f9b6000830184612c94565b92915050565b60006020820190508181036000830152612fbb8184612cdc565b905092915050565b60006020820190508181036000830152612fdc81612d46565b9050919050565b60006020820190508181036000830152612ffc81612d69565b9050919050565b60006080820190506130186000830184612e04565b92915050565b60006020820190506130336000830184612e77565b92915050565b6000613043613054565b905061304f82826133a0565b919050565b6000604051905090565b600067ffffffffffffffff82111561307957613078613507565b5b61308282613554565b9050602081019050919050565b600067ffffffffffffffff8211156130aa576130a9613507565b5b6130b382613554565b9050602081019050919050565b6000819050602082019050919050565b6000819050602082019050919050565b600081519050919050565b600081519050919050565b600081519050919050565b600081519050919050565b6000602082019050919050565b6000602082019050919050565b600082825260208201905092915050565b600082825260208201905092915050565b600082825260208201905092915050565b600081905092915050565b600082825260208201905092915050565b600081905092915050565b600061318b8261330e565b91506131968361330e565b9250827fffffffffffffffffffffffffffffffffffffffffffffffffffffffffffffffff038211156131cb576131ca61344b565b5b828201905092915050565b60006131e18261330e565b91506131ec8361330e565b9250826131fc576131fb61347a565b5b828204905092915050565b60006132128261330e565b915061321d8361330e565b9250817fffffffffffffffffffffffffffffffffffffffffffffffffffffffffffffffff04831182151516156132565761325561344b565b5b828202905092915050565b600061326c8261330e565b91506132778361330e565b92508282101561328a5761328961344b565b5b828203905092915050565b60006132a0826132df565b9050919050565b60008115159050919050565b60007fffffffff0000000000000000000000000000000000000000000000000000000082169050919050565b600073ffffffffffffffffffffffffffffffffffffffff82169050919050565b600062ffffff82169050919050565b6000819050919050565b600067ffffffffffffffff82169050919050565b82818337600083830152505050565b60005b8381101561335957808201518184015260208101905061333e565b83811115613368576000848401525b50505050565b6000600282049050600182168061338657607f821691505b6020821081141561339a576133996134a9565b5b50919050565b6133a982613554565b810181811067ffffffffffffffff821117156133c8576133c7613507565b5b80604052505050565b60006133dc8261330e565b91507fffffffffffffffffffffffffffffffffffffffffffffffffffffffffffffffff82141561340f5761340e61344b565b5b600182019050919050565b60006134258261330e565b91506134308361330e565b9250826134405761343f61347a565b5b828206905092915050565b7f4e487b7100000000000000000000000000000000000000000000000000000000600052601160045260246000fd5b7f4e487b7100000000000000000000000000000000000000000000000000000000600052601260045260246000fd5b7f4e487b7100000000000000000000000000000000000000000000000000000000600052602260045260246000fd5b7f4e487b7100000000000000000000000000000000000000000000000000000000600052603260045260246000fd5b7f4e487b7100000000000000000000000000000000000000000000000000000000600052604160045260246000fd5b600080fd5b600080fd5b600080fd5b600080fd5b600080fd5b600080fd5b6000601f19601f8301169050919050565b7f4f776e61626c653a206e6577206f776e657220697320746865207a65726f206160008201527f6464726573730000000000000000000000000000000000000000000000000000602082015250565b7f4f776e61626c653a2063616c6c6572206973206e6f7420746865206f776e6572600082015250565b50565b6135e981613295565b81146135f457600080fd5b50565b613600816132a7565b811461360b57600080fd5b50565b613617816132b3565b811461362257600080fd5b50565b61362e8161330e565b811461363957600080fd5b5056fea2646970667358221220368aec5bdfb9fa975817f392b76c38f0460afe5786de29e0787b58ee3558b4d264736f6c63430008070033",
  "linkReferences": {},
  "deployedLinkReferences": {}
}