{
  "_format": "hh-sol-artifact-1",
  "contractName": "DollNFTStaking",
  "sourceName": "contracts/DollNFTStaking.sol",
  "abi": [
    {
      "inputs": [
        {
          "internalType": "address",
          "name": "_nftAddress",
          "type": "address"
        },
        {
          "internalType": "address",
          "name": "_tokenAddress",
          "type": "address"
        }
      ],
      "stateMutability": "nonpayable",
      "type": "constructor"
    },
    {
      "inputs": [],
      "name": "dollNFTStakingVaultItemAlreadyStaked",
      "type": "error"
    },
    {
      "inputs": [],
      "name": "dollNFTStakingVaultNotItemOwner",
      "type": "error"
    },
    {
      "anonymous": false,
      "inputs": [
        {
          "indexed": false,
          "internalType": "address",
          "name": "owner",
          "type": "address"
        },
        {
          "indexed": false,
          "internalType": "uint256",
          "name": "reward",
          "type": "uint256"
        }
      ],
      "name": "Claimed",
      "type": "event"
    },
    {
      "anonymous": false,
      "inputs": [
        {
          "indexed": false,
          "internalType": "uint256[]",
          "name": "tokenIds",
          "type": "uint256[]"
        },
        {
          "indexed": false,
          "internalType": "address",
          "name": "owner",
          "type": "address"
        }
      ],
      "name": "ItemsStaked",
      "type": "event"
    },
    {
      "anonymous": false,
      "inputs": [
        {
          "indexed": false,
          "internalType": "uint256[]",
          "name": "tokenIds",
          "type": "uint256[]"
        },
        {
          "indexed": false,
          "internalType": "address",
          "name": "owner",
          "type": "address"
        }
      ],
      "name": "ItemsUnstaked",
      "type": "event"
    },
    {
      "inputs": [
        {
          "internalType": "address",
          "name": "user",
          "type": "address"
        }
      ],
      "name": "balanceOf",
      "outputs": [
        {
          "internalType": "uint256",
          "name": "nftStakedbalance",
          "type": "uint256"
        }
      ],
      "stateMutability": "view",
      "type": "function"
    },
    {
      "inputs": [
        {
          "internalType": "uint256[]",
          "name": "tokenIds",
          "type": "uint256[]"
        }
      ],
      "name": "claim",
      "outputs": [],
      "stateMutability": "nonpayable",
      "type": "function"
    },
    {
      "inputs": [
        {
          "internalType": "uint256",
          "name": "stakingPeriod",
          "type": "uint256"
        }
      ],
      "name": "getDailyReward",
      "outputs": [
        {
          "internalType": "uint256",
          "name": "dailyReward",
          "type": "uint256"
        }
      ],
      "stateMutability": "pure",
      "type": "function"
    },
    {
      "inputs": [
        {
          "internalType": "uint256",
          "name": "_tokenId",
          "type": "uint256"
        }
      ],
      "name": "getRewardEarnedPerNft",
      "outputs": [
        {
          "internalType": "uint256",
          "name": "reward",
          "type": "uint256"
        }
      ],
      "stateMutability": "view",
      "type": "function"
    },
    {
      "inputs": [
        {
          "internalType": "address",
          "name": "user",
          "type": "address"
        }
      ],
      "name": "getTotalRewardEarned",
      "outputs": [
        {
          "internalType": "uint256",
          "name": "totalReward",
          "type": "uint256"
        }
      ],
      "stateMutability": "view",
      "type": "function"
    },
    {
      "inputs": [
        {
          "internalType": "address",
          "name": "",
          "type": "address"
        },
        {
          "internalType": "address",
          "name": "",
          "type": "address"
        },
        {
          "internalType": "uint256",
          "name": "",
          "type": "uint256"
        },
        {
          "internalType": "bytes",
          "name": "",
          "type": "bytes"
        }
      ],
      "name": "onERC721Received",
      "outputs": [
        {
          "internalType": "bytes4",
          "name": "",
          "type": "bytes4"
        }
      ],
      "stateMutability": "pure",
      "type": "function"
    },
    {
      "inputs": [
        {
          "internalType": "uint256[]",
          "name": "tokenIds",
          "type": "uint256[]"
        }
      ],
      "name": "stake",
      "outputs": [],
      "stateMutability": "nonpayable",
      "type": "function"
    },
    {
      "inputs": [
        {
          "internalType": "address",
          "name": "user",
          "type": "address"
        }
      ],
      "name": "tokensOfOwner",
      "outputs": [
        {
          "internalType": "uint256[]",
          "name": "tokens",
          "type": "uint256[]"
        }
      ],
      "stateMutability": "view",
      "type": "function"
    },
    {
      "inputs": [],
      "name": "totalItemsStaked",
      "outputs": [
        {
          "internalType": "uint256",
          "name": "",
          "type": "uint256"
        }
      ],
      "stateMutability": "view",
      "type": "function"
    },
    {
      "inputs": [
        {
          "internalType": "uint256[]",
          "name": "tokenIds",
          "type": "uint256[]"
        }
      ],
      "name": "unstake",
      "outputs": [],
      "stateMutability": "nonpayable",
      "type": "function"
    }
  ],
  "bytecode": "0x60c06040523480156200001157600080fd5b50604051620019d5380380620019d58339818101604052810190620000379190620000c4565b8173ffffffffffffffffffffffffffffffffffffffff1660808173ffffffffffffffffffffffffffffffffffffffff1660601b815250508073ffffffffffffffffffffffffffffffffffffffff1660a08173ffffffffffffffffffffffffffffffffffffffff1660601b8152505050506200015e565b600081519050620000be8162000144565b92915050565b60008060408385031215620000de57620000dd6200013f565b5b6000620000ee85828601620000ad565b92505060206200010185828601620000ad565b9150509250929050565b600062000118826200011f565b9050919050565b600073ffffffffffffffffffffffffffffffffffffffff82169050919050565b600080fd5b6200014f816200010b565b81146200015b57600080fd5b50565b60805160601c60a05160601c61182f620001a66000396000610cdf01526000818161031b015281816104110152818161076e015281816108bd0152610eee015261182f6000f3fe608060405234801561001057600080fd5b506004361061009e5760003560e01c80636ba4c138116100665780636ba4c1381461016d57806370a08231146101895780638462151c146101b9578063d88d2000146101e9578063e449f341146102195761009e565b80630fbf0a93146100a3578063150b7a02146100bf57806333e58779146100ef578063454938e01461010d5780635704589c1461013d575b600080fd5b6100bd60048036038101906100b891906111c7565b610235565b005b6100d960048036038101906100d4919061113f565b6105c8565b6040516100e69190611453565b60405180910390f35b6100f76105dd565b604051610104919061148e565b60405180910390f35b610127600480360381019061012291906110e5565b6105e3565b604051610134919061148e565b60405180910390f35b61015760048036038101906101529190611214565b6106ca565b604051610164919061148e565b60405180910390f35b610187600480360381019061018291906111c7565b610758565b005b6101a3600480360381019061019e91906110e5565b610769565b6040516101b0919061148e565b60405180910390f35b6101d360048036038101906101ce91906110e5565b61089b565b6040516101e09190611431565b60405180910390f35b61020360048036038101906101fe9190611214565b610a6a565b604051610210919061148e565b60405180910390f35b610233600480360381019061022e91906111c7565b610a7c565b005b600082829050905060005b8181101561057357600084848381811061025d5761025c611726565b5b905060200201359050600073ffffffffffffffffffffffffffffffffffffffff166001600083815260200190815260200160002060000160009054906101000a900473ffffffffffffffffffffffffffffffffffffffff1673ffffffffffffffffffffffffffffffffffffffff1614610302576040517f646f31eb00000000000000000000000000000000000000000000000000000000815260040160405180910390fd5b3373ffffffffffffffffffffffffffffffffffffffff167f000000000000000000000000000000000000000000000000000000000000000073ffffffffffffffffffffffffffffffffffffffff16636352211e836040518263ffffffff1660e01b8152600401610372919061148e565b60206040518083038186803b15801561038a57600080fd5b505afa15801561039e573d6000803e3d6000fd5b505050506040513d601f19601f820116820180604052508101906103c29190611112565b73ffffffffffffffffffffffffffffffffffffffff161461040f576040517f809cf74f00000000000000000000000000000000000000000000000000000000815260040160405180910390fd5b7f000000000000000000000000000000000000000000000000000000000000000073ffffffffffffffffffffffffffffffffffffffff166342842e0e3330846040518463ffffffff1660e01b815260040161046c9392919061139f565b600060405180830381600087803b15801561048657600080fd5b505af115801561049a573d6000803e3d6000fd5b5050505060405180604001604052803373ffffffffffffffffffffffffffffffffffffffff1681526020014267ffffffffffffffff168152506001600083815260200190815260200160002060008201518160000160006101000a81548173ffffffffffffffffffffffffffffffffffffffff021916908373ffffffffffffffffffffffffffffffffffffffff16021790555060208201518160000160146101000a81548167ffffffffffffffff021916908367ffffffffffffffff16021790555090505050808061056b9061167f565b915050610240565b508060005461058291906114f3565b6000819055507f05be9727e5f8ef44e5ef226f3d7f8c202aad4325901b4639a0f27f39d7cdccfb8383336040516105bb939291906113ff565b60405180910390a1505050565b600063150b7a0260e01b905095945050505050565b60005481565b6000806105ef8361089b565b905060008151905060005b818110156106c25760006001600085848151811061061b5761061a611726565b5b6020026020010151815260200190815260200160002060000160149054906101000a900467ffffffffffffffff1667ffffffffffffffff1690506000814261066391906115d4565b9050600061067082610a8d565b905062015180670de0b6b3a7640000838361068b919061157a565b610695919061157a565b61069f9190611549565b876106aa91906114f3565b965050505080806106ba9061167f565b9150506105fa565b505050919050565b6000806001600084815260200190815260200160002060000160149054906101000a900467ffffffffffffffff1667ffffffffffffffff1690506000814261071291906115d4565b9050600061071f82610a8d565b905062015180670de0b6b3a7640000838361073a919061157a565b610744919061157a565b61074e9190611549565b9350505050919050565b6107653383836000610b24565b5050565b6000807f000000000000000000000000000000000000000000000000000000000000000073ffffffffffffffffffffffffffffffffffffffff166318160ddd6040518163ffffffff1660e01b815260040160206040518083038186803b1580156107d257600080fd5b505afa1580156107e6573d6000803e3d6000fd5b505050506040513d601f19601f8201168201806040525081019061080a9190611241565b905060005b818111610894578373ffffffffffffffffffffffffffffffffffffffff166001600083815260200190815260200160002060000160009054906101000a900473ffffffffffffffffffffffffffffffffffffffff1673ffffffffffffffffffffffffffffffffffffffff161415610887576001830192505b808060010191505061080f565b5050919050565b606060006108a883610769565b905060008114156108b95750610a65565b60007f000000000000000000000000000000000000000000000000000000000000000073ffffffffffffffffffffffffffffffffffffffff166318160ddd6040518163ffffffff1660e01b815260040160206040518083038186803b15801561092157600080fd5b505afa158015610935573d6000803e3d6000fd5b505050506040513d601f19601f820116820180604052508101906109599190611241565b90508167ffffffffffffffff81111561097557610974611755565b5b6040519080825280602002602001820160405280156109a35781602001602082028036833780820191505090505b5092506000805b828111610a60578573ffffffffffffffffffffffffffffffffffffffff166001600083815260200190815260200160002060000160009054906101000a900473ffffffffffffffffffffffffffffffffffffffff1673ffffffffffffffffffffffffffffffffffffffff161415610a555780858381518110610a2f57610a2e611726565b5b602002602001018181525050818060010192505083821415610a545750505050610a65565b5b8060010190506109aa565b505050505b919050565b6000610a7582610a8d565b9050919050565b610a893383836001610b24565b5050565b600062278d008211610aa25760019050610b1f565b600362278d00610ab2919061157a565b8211610ac15760029050610b1e565b600662278d00610ad1919061157a565b8211610ae05760039050610b1d565b600c62278d00610af0919061157a565b8211610aff5760049050610b1c565b600c62278d00610b0f919061157a565b821115610b1b57600890505b5b5b5b5b919050565b600080600085859050905060005b81811015610cd457868682818110610b4d57610b4c611726565b5b9050602002013593508773ffffffffffffffffffffffffffffffffffffffff166001600086815260200190815260200160002060000160009054906101000a900473ffffffffffffffffffffffffffffffffffffffff1673ffffffffffffffffffffffffffffffffffffffff1614610bf1576040517f809cf74f00000000000000000000000000000000000000000000000000000000815260040160405180910390fd5b60006001600086815260200190815260200160002060000160149054906101000a900467ffffffffffffffff1667ffffffffffffffff16905060008142610c3891906115d4565b90506000610c4582610a8d565b905062015180670de0b6b3a76400008383610c60919061157a565b610c6a919061157a565b610c749190611549565b86610c7f91906114f3565b9550426001600089815260200190815260200160002060000160146101000a81548167ffffffffffffffff021916908367ffffffffffffffff1602179055505050508080610ccc9061167f565b915050610b32565b5060008214610da4577f000000000000000000000000000000000000000000000000000000000000000073ffffffffffffffffffffffffffffffffffffffff166340c10f1988846040518363ffffffff1660e01b8152600401610d389291906113d6565b600060405180830381600087803b158015610d5257600080fd5b505af1158015610d66573d6000803e3d6000fd5b505050507fd8138f8a3f377c5259ca548e70e4c2de94f129f5a11036a15b69513cba2b426a8783604051610d9b9291906113d6565b60405180910390a15b8315610db657610db5878787610dbf565b5b50505050505050565b600082829050905060005b81811015610f8f576000848483818110610de757610de6611726565b5b9050602002013590508573ffffffffffffffffffffffffffffffffffffffff166001600083815260200190815260200160002060000160009054906101000a900473ffffffffffffffffffffffffffffffffffffffff1673ffffffffffffffffffffffffffffffffffffffff1614610e94576040517f08c379a0000000000000000000000000000000000000000000000000000000008152600401610e8b9061146e565b60405180910390fd5b60016000828152602001908152602001600020600080820160006101000a81549073ffffffffffffffffffffffffffffffffffffffff02191690556000820160146101000a81549067ffffffffffffffff021916905550507f000000000000000000000000000000000000000000000000000000000000000073ffffffffffffffffffffffffffffffffffffffff166342842e0e3088846040518463ffffffff1660e01b8152600401610f499392919061139f565b600060405180830381600087803b158015610f6357600080fd5b505af1158015610f77573d6000803e3d6000fd5b50505050508080610f879061167f565b915050610dca565b5080600054610f9e91906115d4565b6000819055507fce2f10e8afa473f84590e633f11ac65e6b99348175c4246f429ef398ccae7612838386604051610fd7939291906113ff565b60405180910390a150505050565b600081359050610ff4816117cb565b92915050565b600081519050611009816117cb565b92915050565b60008083601f84011261102557611024611789565b5b8235905067ffffffffffffffff81111561104257611041611784565b5b60208301915083602082028301111561105e5761105d61178e565b5b9250929050565b60008083601f84011261107b5761107a611789565b5b8235905067ffffffffffffffff81111561109857611097611784565b5b6020830191508360018202830111156110b4576110b361178e565b5b9250929050565b6000813590506110ca816117e2565b92915050565b6000815190506110df816117e2565b92915050565b6000602082840312156110fb576110fa61179d565b5b600061110984828501610fe5565b91505092915050565b6000602082840312156111285761112761179d565b5b600061113684828501610ffa565b91505092915050565b60008060008060006080868803121561115b5761115a61179d565b5b600061116988828901610fe5565b955050602061117a88828901610fe5565b945050604061118b888289016110bb565b935050606086013567ffffffffffffffff8111156111ac576111ab611793565b5b6111b888828901611065565b92509250509295509295909350565b600080602083850312156111de576111dd61179d565b5b600083013567ffffffffffffffff8111156111fc576111fb611793565b5b6112088582860161100f565b92509250509250929050565b60006020828403121561122a5761122961179d565b5b6000611238848285016110bb565b91505092915050565b6000602082840312156112575761125661179d565b5b6000611265848285016110d0565b91505092915050565b600061127a8383611381565b60208301905092915050565b61128f81611608565b82525050565b60006112a183856114d1565b93507f07ffffffffffffffffffffffffffffffffffffffffffffffffffffffffffffff8311156112d4576112d3611798565b5b6020830292506112e5838584611670565b82840190509392505050565b60006112fc826114b9565b61130681856114d1565b9350611311836114a9565b8060005b83811015611342578151611329888261126e565b9750611334836114c4565b925050600181019050611315565b5085935050505092915050565b6113588161161a565b82525050565b600061136b6009836114e2565b9150611376826117a2565b602082019050919050565b61138a81611666565b82525050565b61139981611666565b82525050565b60006060820190506113b46000830186611286565b6113c16020830185611286565b6113ce6040830184611390565b949350505050565b60006040820190506113eb6000830185611286565b6113f86020830184611390565b9392505050565b6000604082019050818103600083015261141a818587611295565b90506114296020830184611286565b949350505050565b6000602082019050818103600083015261144b81846112f1565b905092915050565b6000602082019050611468600083018461134f565b92915050565b600060208201905081810360008301526114878161135e565b9050919050565b60006020820190506114a36000830184611390565b92915050565b6000819050602082019050919050565b600081519050919050565b6000602082019050919050565b600082825260208201905092915050565b600082825260208201905092915050565b60006114fe82611666565b915061150983611666565b9250827fffffffffffffffffffffffffffffffffffffffffffffffffffffffffffffffff0382111561153e5761153d6116c8565b5b828201905092915050565b600061155482611666565b915061155f83611666565b92508261156f5761156e6116f7565b5b828204905092915050565b600061158582611666565b915061159083611666565b9250817fffffffffffffffffffffffffffffffffffffffffffffffffffffffffffffffff04831182151516156115c9576115c86116c8565b5b828202905092915050565b60006115df82611666565b91506115ea83611666565b9250828210156115fd576115fc6116c8565b5b828203905092915050565b600061161382611646565b9050919050565b60007fffffffff0000000000000000000000000000000000000000000000000000000082169050919050565b600073ffffffffffffffffffffffffffffffffffffffff82169050919050565b6000819050919050565b82818337600083830152505050565b600061168a82611666565b91507fffffffffffffffffffffffffffffffffffffffffffffffffffffffffffffffff8214156116bd576116bc6116c8565b5b600182019050919050565b7f4e487b7100000000000000000000000000000000000000000000000000000000600052601160045260246000fd5b7f4e487b7100000000000000000000000000000000000000000000000000000000600052601260045260246000fd5b7f4e487b7100000000000000000000000000000000000000000000000000000000600052603260045260246000fd5b7f4e487b7100000000000000000000000000000000000000000000000000000000600052604160045260246000fd5b600080fd5b600080fd5b600080fd5b600080fd5b600080fd5b600080fd5b7f4e6f74204f776e65720000000000000000000000000000000000000000000000600082015250565b6117d481611608565b81146117df57600080fd5b50565b6117eb81611666565b81146117f657600080fd5b5056fea26469706673582212205da88681b8f3a34b1f7a5136f77c71b6afc40240aba1aabe0c7fa7a026b2d8bc64736f6c63430008070033",
  "linkReferences": {},
  "deployedLinkReferences": {}
}